:10000000DEC325C4F7C3E0C5F5C3F4C3F3C3F2C32D
:10001000F1C3F0C3EFC3EEC3CDC5ECC3EBC3050121
:100020000906A101050719E029E715002501750159
:1000300095088102950175082565190029658100DB
:10004000C04443424141414141414141414141411B
:100050004141414141414141414141414141414190
:100060004141414141414141414141414141414180
:100070004141414141414141414141414141414170
:100080004141414141414141414141414141414160
:1007600041414141414141090222000101008019FA
:100770000904000001030000000921010100012219
:1007800023000705810308000A1201100100000080
:1007900008424231E10001010200010C03750044EE
:1007A00000750063006B0012037000680069006B45
:1007B000007300680075006E000403090400112432
:1007C0001FBECFE5D2E0DEBFCDBF10E0A0E6B0E0B7
:1007D000E2EDF7E102C005900D92A436B107D9F71A
:1007E00020E0A4E6B0E001C01D92A93CB207E1F709
:1007F00036D6EDC705CCA82FB92F80E090E041E0B8
:1008000050EA60956F5F58F42D9138EF82279795E5
:10081000879510F0842795273F5FC8F3F3CF08959D
:10082000EADF8D939D930895A6E088279927AA95DE
:1008300069F00197E1F3B199FCCFB19BFECF81E064
:100840009927A6B3019611F0A670D9F70895CF9312
:10085000CFB7CF93B19BFECFB19B0BC0B19B09C06B
:10086000B19B07C0B19B05C0B19B03C0B19B01C048
:10087000D5C00F92DF93C091AC00DD27CD54DF4F80
:10088000012EB19B03C0DF910F90E6CF2F930F9302
:100890001F934F932FEF4F6F06B301FB20F95F9328
:1008A0003F9350E03BE065C016B30126502951FD4F
:1008B000C89556B3012701FB25F92F7306B3B1F094
:1008C0005027102711FB26F906B22230F0F000C0A5
:1008D00016B3012701FB27F90126502906B224305F
:1008E000E8F54F77206816B30000F6CF50274F7D0C
:1008F000206206B2102F000000C006B30026502967
:10090000102711FB26F906B2E2CF4F7B06B3206415
:1009100000C0DACF01265029167006B269F14E7F69
:100920002160012F16B328C0002650294D7F06B242
:100930002260102F29C0012650294B7F06B2246067
:10094000012F2DC016B301265029477F28600000D3
:1009500006B22EC04F7E06B3206130C0422706B3D8
:10096000499300265029102706B24FEF11FB20F9BA
:10097000297F16B379F2167059F10126502906B273
:10098000012701FB21F9237F06B371F200265029CC
:100990003150D0F006B2102711FB22F9277E16B392
:1009A00051F201265029012701FB06B223F92F7CC1
:1009B00049F2000006B3102711FB24F90026502944
:1009C00006B22F7939F270CF10E41ABF002719C090
:1009D0003B503195C31BD04010E41ABF0881033C43
:1009E00009F10B34F9F02091AA001981110F1213AB
:1009F000EDCF4A81441F093651F10D3211F0013E0D
:100A000029F70093B1003F915F914F911F910F9192
:100A10002F91DF910F90CAB7C6FD1CCFCF91CFBFEA
:100A2000CF9118950091B100002369F31091AF00A8
:100A3000112379F534307AF13093AF000093AB0095
:100A40001091AC003BE0311B3093AC0024C000910E
:100A5000AF000130F4F40AE54F7049F430916100C1
:100A600034FD1AC000936100C4E9D0E019C0309190
:100A7000600034FD11C000936000CFE9D0E010C0E9
:100A8000052710E000C021C0052710E0C89508BB6D
:100A900014C03AE501C032ED032EC0E0D0E032E0F0
:100AA00017B31660C19A08B317BB56E020E84FEFA2
:100AB00020FF052708BB279517951C3F28F7000046
:100AC0004552B0F720FF0527279508BB17951C3F17
:100AD000B8F629913A9561F7097F1091B000110F8E
:100AE00008BBC250D04011F01093AA0010E41ABF06
:100AF000026017B3197F402F497F54E05A95F1F7F0
:100B000008BB17BB48BB7FCF90E896BD16BCC09A08
:100B1000000000000000B89800000000000086B34C
:100B20008095817080937B00C098B89A96BD83E0D1
:100B300086BD80917B00882359F1909179009111B5
:100B400031C09091760091112DC0909190009F5FDF
:100B50009093900091E09093760024C08F5F843052
:100B6000F0F01092760011C0882379F080918C000B
:100B70008F5F80938C008032E0F081E080938F0063
:100B80008093900010928C00089510928C0008952C
:100B900010927900809176008111E0CFF6CF80939A
:100BA0007600F3CF80937900909176009111DECF9B
:100BB000DBCF08951F920F920FB60F9211240F9062
:100BC0000FBE0F901F9018951F920F920FB60F92A5
:100BD00011242F933F934F935F936F937F938F9342
:100BE0009F93AF93BF93EF93FF9380917700811111
:100BF00037C080E2809377008091750081111DC01D
:100C000080918D008093750040918E00ECE7F0E0BC
:100C10002CE830E0DF0183819281891710F4840F82
:100C2000838313968C911397981718F48150139619
:100C30008C933496E217F30769F780917500815021
:100C40008093750080919100811104C08AE08093A7
:100C500091005ADF8091910081508093910017C0DC
:100C6000ECE7F0E02CE830E0938180917700891781
:100C700028F498B38081892B88BB05C098B3808104
:100C80008095892388BB3496E217F30769F7809132
:100C90007700815080937700FF91EF91BF91AF91E2
:100CA0009F918F917F916F915F914F913F912F9184
:100CB0000F900FBE0F901F901895CF93DF9300D029
:100CC000CDB7DEB79A838983609190004DE750E0FD
:100CD00005C0CA010197F1F7611109C089819A81A4
:100CE0009C01215031093A832983892B91F70F9078
:100CF0000F90DF91CF9108958091740091E0980F4B
:100D0000909374002091920080919300822789270C
:100D10008093930090917A00980F90937A00969523
:100D20008927820F809392000895CF93DF9384E008
:100D300080938D0081E080938E00CCE7D0E08981A4
:100D40008A8388EC90E0B9DF8D818E8388EC90E017
:100D5000B4DF89858A871A8288EC90E0AEDF8D85C2
:100D60008E871E8288EC90E0A8DF1A8688EC90E0DF
:100D7000A4DF1E8688E097E0A0DFDF91CF91089581
:100D8000CF93DF9383E080938D0081E080938E008A
:100D9000CCE7D0E089818A8388E790E08EDF8D817F
:100DA0008E831A8288E790E088DF89858A871E8291
:100DB00088E790E082DF8D858E871A8688E790E04D
:100DC0007CDF1E8680EF90E078DF8D858E8788E758
:100DD00090E073DF89858A871E8688E790E06DDF63
:100DE0008D818E831A8688E790E067DF89818A8308
:100DF0001E8288E790E061DF1A8288E493E05DDF7D
:100E0000DF91CF9108958AE080938D0085E08093F3
:100E10008E0072DFE0919200E370F0E0EE0FFF1FB2
:100E2000EE0FFF1FE458FF4F8181828384E690E03C
:100E300044DF80919200E82FE370F0E0EE0FFF1F97
:100E4000EE0FFF1FE458FF4F12828B7F90E0880F58
:100E5000991F880F991F31DF08950F931F93CF9328
:100E60004BDF81E080938D0082E080938E00C0E0B4
:100E70000CE710E005C0C0FF03C0F8018181828348
:100E8000C1FF03C0F80185818683C2FF03C0F8015A
:100E900081858287C3FF03C0F8018585868784E149
:100EA00090E00BDFF801128216821286168680917E
:100EB000920090E0880F991F4496FFDE8091900089
:100EC000811106C0CF5FC031B1F688EE93E0F5DE48
:100ED000CF911F910F910895CF92DF92EF92FF92E1
:100EE0000F931F93CF93C62F6623F9F0C82ED12CF2
:100EF000C601880F991F880F991F84589F4F7C0146
:100F000022E0E20EF11C6C01EFEFCE1ADE0A042F94
:100F100010E0F6018081F7018083C801CEDEF70181
:100F20001082C801CADEC150A1F7CF911F910F9165
:100F3000FF90EF90DF90CF9008951F93CF93DF93B2
:100F4000DBDE81E080938D0080938E00C091920063
:100F5000C770CD5F48E264E081E0BEDF80E590E0ED
:100F6000ACDE48E264E082E0B7DF80E590E0A5DE39
:100F700080919000811120C0C15061F782E0809380
:100F80008D0010919200117F1695169516951D5F94
:100F9000CCE7D0E089818A8388EC90E08EDE1A82EB
:100FA0008D858E8788EC90E088DE1E86809190008B
:100FB000811102C0115071F7DF91CF911F910895F7
:100FC000CF93DF9381E080938D0080938E0086E93C
:100FD00090E073DECCE7D0E089818A8382E390E001
:100FE0006CDE1A8282E390E068DE8D818E8382E37C
:100FF00090E063DE1E8282E390E05FDE89858A876F
:1010000082E390E05ADE1A8682E390E056DE8D8518
:101010008E8782E390E051DE1E8682E390E04DDE13
:10102000DF91CF91089519BE8FE080BD18BA85E495
:1010300081BD81E0809379001092760085B78F7B27
:1010400085BF85B7806285BF889585B78F7D85BF51
:1010500085B7806485BF81E090E02FDE55DD80910B
:101060009000882359F31092900081E080937900DA
:101070001092760011BC87E080BD80E489BF08959E
:1010800080E886BD83E086BD87E080BD85B7877E2A
:10109000806185BF89E387BB83E880BF82E38DBD24
:1010A0001EBC80E489BFECE7F0E081E0808380E152
:1010B000848388E0808780E2848787E181838AE077
:1010C000858385E081878FE185877894C6E080916C
:1010D0007800823079F028F4882341F0813041F0A3
:1010E0000FC0833049F0843049F00AC049DE0AC09D
:1010F00024DF08C01ADE06C0B0DE04C084DE02C0F1
:101100001092780080919000882349F090917800A7
:10111000890F6C2F3AD390937800109290008091B1
:101120008F008823A1F210928F004ADF7CDFCFCF9F
:10113000FC0180E790E09093AE008093AD00908139
:1011400090769032F9F48181813059F480916E006B
:101150008F5F80936E00E0E7F0E01082118282E002
:101160000895823041F48FE690E09093AE00809332
:10117000AD0081E008958A3039F4838180936F0057
:1011800080E0089580E0089580E00895DF92EF9276
:10119000FF920F931F93CF93DF936894EE24E3F8AD
:1011A000F12CD12C10E8012F0D0D01BF3DDBEC011E
:1011B000C43389E0D8070CF4D02E169581E0E81AE4
:1011C000F10889F78FEF8D0D81BF81B70D2D10E0EC
:1011D0000F5F1F4F90E008171907B4F025DB845309
:1011E00099409C0122F422273327281B390B2C1706
:1011F0003D0714F4D1B6E90181B78F5F81BF81B794
:1012000090E00817190754F7D1BE61B780E090E06D
:10121000D0D2DF91CF911F910F91FF90EF90DF908F
:10122000089580E090E0BDD28F3F09F081BFB99A68
:1012300084E1A2EBB1EF1197F1F700C000008150FB
:10124000C1F7B9989EE088E10FB6F894A89581BDE2
:101250000FBE91BD8BE080BF8BE391E0A0E0B0E0DA
:1012600080936A0090936B00A0936C00B0936D0024
:1012700082D278940F2EF0E7AF2EF0E0BF2EF02D43
:101280009A2CDB2D6894222421F8312C0F2EF4ECBB
:101290004F2EFEE05F2E612C712CF02DC12CD12C35
:1012A0007601C39401E010E0C4E0A8950ED18091CE
:1012B000600084FFAAC080916A0090916B00A091A9
:1012C0006C00B0916D000197A105B10509F09DC0BA
:1012D0008091680090916900FC01EF5BFF4F2491C1
:1012E000FC01EE5BFF4F3491FC01ED5BFF4F8490FE
:1012F000213409F056C0313409F053C0B1E48B12E7
:1013000050C080916E008F5F80936E00F501108257
:10131000118262E0892D9D2FB3D010926900109246
:10132000680010926E0080916600909167000097AF
:1013300069F440926A0050926B0060926C00709267
:101340006D0010936700009366005FC0019789F4F9
:1013500084ED99E4A0E0B0E080936A0090936B0084
:10136000A0936C00B0936D003092670020926600ED
:101370004CC0C2DC880F991F880F991F880F991FD6
:10138000092E000CAA0BBB0B80549842A24FBF4FF2
:1013900080936A0090936B00A0936C00B0936D00F3
:1013A00034C080916E0080FF0CC08F5F80936E0010
:1013B000D5011C9211961C9262E0892D9D2F60D060
:1013C00024C08F5F80936E00F5012083318362E03B
:1013D000892D9D2F55D0882079F0882D90E0019699
:1013E000092E000CAA0BBB0B80936A0090936B0034
:1013F000A0936C00B0936D0080916800909169009B
:101400000396909369008093680008B602FE4DCF62
:10141000C8BF80916400909165000196909365002B
:1014200080936400A0E0B0E040916A0050916B00AE
:1014300060916C0070916D0084179507A607B7073F
:1014400008F433CFC0926A00D0926B00E0926C0037
:10145000F0926D00109265001092640023CF80E13D
:1014600088BB8CE190E10197F1F700C00000B49BCC
:1014700002C018BAD6DE18BA03DE80E090E0089504
:10148000CF93C62F2091600024FF07C0EFE9F0E062
:10149000308128E82327208303C02AE520936000B9
:1014A0002FEF2C0FCC2341F0E82FF92FA0EAB0E06A
:1014B00081918D932150E0F76C2F80EA90E0B0D9B4
:1014C000CC5FC0936000CF910895CF93DF9380915C
:1014D000AF0018160CF0C9C09091AB009D3209F016
:1014E000B9C02091AC009AE5909361008B3009F06F
:1014F000B4C0CCE0D0E0C21BD109CD54DF4F88810D
:10150000807609F093C010929D00898181110BC0F3
:1015100010929E008DE990E09093AE008093AD0014
:1015200090E882E08FC0853031F48A818093B000EA
:1015300090E880E087C0863009F052C08B8181300E
:1015400049F489E897E09093AE008093AD0090EC69
:1015500082E178C0823049F487E697E09093AE004C
:101560008093AD0090EC82E26DC0833019F58A81E2
:10157000811109C089EB97E09093AE008093AD0094
:1015800090EC84E05FC0813049F487EA97E0909363
:10159000AE008093AD0090EC82E154C0823009F03F
:1015A00049C08BE997E09093AE008093AD0090EC3A
:1015B0008CE048C0813249F489E797E09093AE000F
:1015C0008093AD0090EC89E03DC08232B1F58EE1B0
:1015D00090E09093AE008093AD0090EC83E232C037
:1015E000883049F482EB90E09093AE008093AD0098
:1015F00090E881E027C0893031F48A818093B2007D
:1016000090E880E01FC08A3049F48DE990E0909323
:10161000AE008093AD0090E881E014C08B3081F47F
:1016200083EC80939F0090E880E00CC0CE0180DDC9
:1016300090E808C090EC80E005C090EC80E002C02B
:1016400090E880E02F8121110AC02E81281738F4FC
:10165000822F05C090E880E002C090E880E090937F
:101660007300809362001092AF008091610084FF4C
:1016700065C0809162008F3F09F460C0C82F893037
:1016800008F0C8E08C1B809362008091730080FF9B
:1016900002C0D3EC01C0DBE48F5F80937300209124
:1016A000AD003091AE0086FD05C04FEF4C0FC1116B
:1016B00014C024C04FEF4C0FCC2301F1A5E9B0E0DA
:1016C000842FF90194919D9331968150D8F7842FFE
:1016D00090E00196280F391F0DC0D901E5E9F0E02F
:1016E000842F9D9191938150E0F7842F90E0019693
:1016F000280F391F3093AE002093AD006C2F85E981
:1017000090E08ED884E08C0FC83018F49FEF90934F
:101710006200D09394008093610010C086B38670FD
:10172000D9F49150D9F70FC0992329F001C0C0E036
:101730002DDD01C0C1E0C09372001AC086B386706F
:1017400099F499E0EBCF1092B0001092AA0080912A
:101750007200813079F70CC0C1E09111C0E0809136
:101760007200C813E1CF04C0809172008111DFCFF5
:10177000DF91CF91089585B7836085BF8BB7806473
:101780008BBF83EC80939F000895991B79E004C080
:10179000991F961708F0961B881F7A95C9F78095B0
:1017A0000895E199FECF9FBB8EBBE09A99278DB338
:1017B0000895262FE199FECF1CBA9FBB8EBB2DBB8F
:1017C0000FB6F894E29AE19A0FBE01960895F89444
:0217D000FFCF49
:0417D2005A5AFF0060
:00000001FF
